{
  "_format": "hh-sol-artifact-1",
  "contractName": "GitHubRepoProtection",
  "sourceName": "contracts/filefind/GitHubRepoProtection.sol",
  "abi": [
    {
      "inputs": [],
      "stateMutability": "nonpayable",
      "type": "constructor"
    },
    {
      "inputs": [
        {
          "internalType": "address",
          "name": "owner",
          "type": "address"
        }
      ],
      "name": "OwnableInvalidOwner",
      "type": "error"
    },
    {
      "inputs": [
        {
          "internalType": "address",
          "name": "account",
          "type": "address"
        }
      ],
      "name": "OwnableUnauthorizedAccount",
      "type": "error"
    },
    {
      "inputs": [],
      "name": "ReentrancyGuardReentrantCall",
      "type": "error"
    },
    {
      "anonymous": false,
      "inputs": [
        {
          "indexed": true,
          "internalType": "uint256",
          "name": "repoId",
          "type": "uint256"
        },
        {
          "indexed": false,
          "internalType": "string",
          "name": "newLicense",
          "type": "string"
        }
      ],
      "name": "LicenseUpdated",
      "type": "event"
    },
    {
      "anonymous": false,
      "inputs": [
        {
          "indexed": true,
          "internalType": "address",
          "name": "previousOwner",
          "type": "address"
        },
        {
          "indexed": true,
          "internalType": "address",
          "name": "newOwner",
          "type": "address"
        }
      ],
      "name": "OwnershipTransferred",
      "type": "event"
    },
    {
      "anonymous": false,
      "inputs": [
        {
          "indexed": true,
          "internalType": "uint256",
          "name": "repoId",
          "type": "uint256"
        },
        {
          "indexed": true,
          "internalType": "address",
          "name": "owner",
          "type": "address"
        },
        {
          "indexed": false,
          "internalType": "string",
          "name": "githubUrl",
          "type": "string"
        },
        {
          "indexed": false,
          "internalType": "string",
          "name": "repoHash",
          "type": "string"
        }
      ],
      "name": "RepositoryRegistered",
      "type": "event"
    },
    {
      "anonymous": false,
      "inputs": [
        {
          "indexed": true,
          "internalType": "address",
          "name": "user",
          "type": "address"
        },
        {
          "indexed": true,
          "internalType": "enum GitHubRepoProtection.SubmissionType",
          "name": "submissionType",
          "type": "uint8"
        },
        {
          "indexed": false,
          "internalType": "uint256",
          "name": "relevantId",
          "type": "uint256"
        },
        {
          "indexed": false,
          "internalType": "string",
          "name": "details",
          "type": "string"
        }
      ],
      "name": "SubmissionProcessed",
      "type": "event"
    },
    {
      "anonymous": false,
      "inputs": [
        {
          "indexed": true,
          "internalType": "uint256",
          "name": "violationId",
          "type": "uint256"
        },
        {
          "indexed": true,
          "internalType": "uint256",
          "name": "originalRepoId",
          "type": "uint256"
        },
        {
          "indexed": true,
          "internalType": "address",
          "name": "reporter",
          "type": "address"
        },
        {
          "indexed": false,
          "internalType": "string",
          "name": "violatingUrl",
          "type": "string"
        },
        {
          "indexed": false,
          "internalType": "uint256",
          "name": "similarityScore",
          "type": "uint256"
        }
      ],
      "name": "ViolationReported",
      "type": "event"
    },
    {
      "anonymous": false,
      "inputs": [
        {
          "indexed": true,
          "internalType": "uint256",
          "name": "violationId",
          "type": "uint256"
        },
        {
          "indexed": false,
          "internalType": "enum GitHubRepoProtection.ViolationStatus",
          "name": "newStatus",
          "type": "uint8"
        },
        {
          "indexed": false,
          "internalType": "string",
          "name": "dmcaReference",
          "type": "string"
        }
      ],
      "name": "ViolationStatusUpdated",
      "type": "event"
    },
    {
      "inputs": [
        {
          "internalType": "uint256",
          "name": "repoId",
          "type": "uint256"
        }
      ],
      "name": "deactivateRepository",
      "outputs": [],
      "stateMutability": "nonpayable",
      "type": "function"
    },
    {
      "inputs": [
        {
          "internalType": "uint256",
          "name": "repoId",
          "type": "uint256"
        }
      ],
      "name": "getRepository",
      "outputs": [
        {
          "components": [
            {
              "internalType": "uint256",
              "name": "id",
              "type": "uint256"
            },
            {
              "internalType": "address",
              "name": "owner",
              "type": "address"
            },
            {
              "internalType": "string",
              "name": "githubUrl",
              "type": "string"
            },
            {
              "internalType": "string",
              "name": "repoHash",
              "type": "string"
            },
            {
              "internalType": "string",
              "name": "codeFingerprint",
              "type": "string"
            },
            {
              "internalType": "string[]",
              "name": "keyFeatures",
              "type": "string[]"
            },
            {
              "internalType": "string",
              "name": "licenseType",
              "type": "string"
            },
            {
              "internalType": "uint256",
              "name": "registeredAt",
              "type": "uint256"
            },
            {
              "internalType": "bool",
              "name": "isActive",
              "type": "bool"
            },
            {
              "internalType": "string",
              "name": "ipfsMetadata",
              "type": "string"
            }
          ],
          "internalType": "struct GitHubRepoProtection.Repository",
          "name": "",
          "type": "tuple"
        }
      ],
      "stateMutability": "view",
      "type": "function"
    },
    {
      "inputs": [
        {
          "internalType": "string",
          "name": "repoHash",
          "type": "string"
        }
      ],
      "name": "getRepositoryByHash",
      "outputs": [
        {
          "components": [
            {
              "internalType": "uint256",
              "name": "id",
              "type": "uint256"
            },
            {
              "internalType": "address",
              "name": "owner",
              "type": "address"
            },
            {
              "internalType": "string",
              "name": "githubUrl",
              "type": "string"
            },
            {
              "internalType": "string",
              "name": "repoHash",
              "type": "string"
            },
            {
              "internalType": "string",
              "name": "codeFingerprint",
              "type": "string"
            },
            {
              "internalType": "string[]",
              "name": "keyFeatures",
              "type": "string[]"
            },
            {
              "internalType": "string",
              "name": "licenseType",
              "type": "string"
            },
            {
              "internalType": "uint256",
              "name": "registeredAt",
              "type": "uint256"
            },
            {
              "internalType": "bool",
              "name": "isActive",
              "type": "bool"
            },
            {
              "internalType": "string",
              "name": "ipfsMetadata",
              "type": "string"
            }
          ],
          "internalType": "struct GitHubRepoProtection.Repository",
          "name": "",
          "type": "tuple"
        }
      ],
      "stateMutability": "view",
      "type": "function"
    },
    {
      "inputs": [
        {
          "internalType": "uint256",
          "name": "repoId",
          "type": "uint256"
        }
      ],
      "name": "getRepositoryViolations",
      "outputs": [
        {
          "internalType": "uint256[]",
          "name": "",
          "type": "uint256[]"
        }
      ],
      "stateMutability": "view",
      "type": "function"
    },
    {
      "inputs": [],
      "name": "getTotalRepositories",
      "outputs": [
        {
          "internalType": "uint256",
          "name": "",
          "type": "uint256"
        }
      ],
      "stateMutability": "view",
      "type": "function"
    },
    {
      "inputs": [],
      "name": "getTotalViolations",
      "outputs": [
        {
          "internalType": "uint256",
          "name": "",
          "type": "uint256"
        }
      ],
      "stateMutability": "view",
      "type": "function"
    },
    {
      "inputs": [
        {
          "internalType": "address",
          "name": "user",
          "type": "address"
        }
      ],
      "name": "getUserRepositories",
      "outputs": [
        {
          "internalType": "uint256[]",
          "name": "",
          "type": "uint256[]"
        }
      ],
      "stateMutability": "view",
      "type": "function"
    },
    {
      "inputs": [
        {
          "internalType": "uint256",
          "name": "violationId",
          "type": "uint256"
        }
      ],
      "name": "getViolation",
      "outputs": [
        {
          "components": [
            {
              "internalType": "uint256",
              "name": "id",
              "type": "uint256"
            },
            {
              "internalType": "uint256",
              "name": "originalRepoId",
              "type": "uint256"
            },
            {
              "internalType": "address",
              "name": "reporter",
              "type": "address"
            },
            {
              "internalType": "string",
              "name": "violatingUrl",
              "type": "string"
            },
            {
              "internalType": "string",
              "name": "evidenceHash",
              "type": "string"
            },
            {
              "internalType": "uint256",
              "name": "similarityScore",
              "type": "uint256"
            },
            {
              "internalType": "enum GitHubRepoProtection.ViolationStatus",
              "name": "status",
              "type": "uint8"
            },
            {
              "internalType": "uint256",
              "name": "reportedAt",
              "type": "uint256"
            },
            {
              "internalType": "string",
              "name": "dmcaReference",
              "type": "string"
            }
          ],
          "internalType": "struct GitHubRepoProtection.CodeViolation",
          "name": "",
          "type": "tuple"
        }
      ],
      "stateMutability": "view",
      "type": "function"
    },
    {
      "inputs": [],
      "name": "owner",
      "outputs": [
        {
          "internalType": "address",
          "name": "",
          "type": "address"
        }
      ],
      "stateMutability": "view",
      "type": "function"
    },
    {
      "inputs": [
        {
          "internalType": "enum GitHubRepoProtection.SubmissionType",
          "name": "submissionType",
          "type": "uint8"
        },
        {
          "internalType": "uint256",
          "name": "repoId",
          "type": "uint256"
        },
        {
          "internalType": "string",
          "name": "githubUrl",
          "type": "string"
        },
        {
          "internalType": "string",
          "name": "repoHash",
          "type": "string"
        },
        {
          "internalType": "string",
          "name": "codeFingerprint",
          "type": "string"
        },
        {
          "internalType": "string[]",
          "name": "keyFeatures",
          "type": "string[]"
        },
        {
          "internalType": "string",
          "name": "licenseType",
          "type": "string"
        },
        {
          "internalType": "string",
          "name": "ipfsMetadata",
          "type": "string"
        },
        {
          "internalType": "string",
          "name": "evidenceHash",
          "type": "string"
        },
        {
          "internalType": "uint256",
          "name": "similarityScore",
          "type": "uint256"
        }
      ],
      "name": "processSubmission",
      "outputs": [],
      "stateMutability": "nonpayable",
      "type": "function"
    },
    {
      "inputs": [
        {
          "internalType": "string",
          "name": "githubUrl",
          "type": "string"
        },
        {
          "internalType": "string",
          "name": "repoHash",
          "type": "string"
        },
        {
          "internalType": "string",
          "name": "codeFingerprint",
          "type": "string"
        },
        {
          "internalType": "string[]",
          "name": "keyFeatures",
          "type": "string[]"
        },
        {
          "internalType": "string",
          "name": "licenseType",
          "type": "string"
        },
        {
          "internalType": "string",
          "name": "ipfsMetadata",
          "type": "string"
        }
      ],
      "name": "registerRepository",
      "outputs": [
        {
          "internalType": "uint256",
          "name": "",
          "type": "uint256"
        }
      ],
      "stateMutability": "nonpayable",
      "type": "function"
    },
    {
      "inputs": [],
      "name": "renounceOwnership",
      "outputs": [],
      "stateMutability": "nonpayable",
      "type": "function"
    },
    {
      "inputs": [
        {
          "internalType": "string",
          "name": "",
          "type": "string"
        }
      ],
      "name": "repoHashToId",
      "outputs": [
        {
          "internalType": "uint256",
          "name": "",
          "type": "uint256"
        }
      ],
      "stateMutability": "view",
      "type": "function"
    },
    {
      "inputs": [
        {
          "internalType": "uint256",
          "name": "",
          "type": "uint256"
        },
        {
          "internalType": "uint256",
          "name": "",
          "type": "uint256"
        }
      ],
      "name": "repoViolations",
      "outputs": [
        {
          "internalType": "uint256",
          "name": "",
          "type": "uint256"
        }
      ],
      "stateMutability": "view",
      "type": "function"
    },
    {
      "inputs": [
        {
          "internalType": "uint256",
          "name": "originalRepoId",
          "type": "uint256"
        },
        {
          "internalType": "string",
          "name": "violatingUrl",
          "type": "string"
        },
        {
          "internalType": "string",
          "name": "evidenceHash",
          "type": "string"
        },
        {
          "internalType": "uint256",
          "name": "similarityScore",
          "type": "uint256"
        }
      ],
      "name": "reportViolation",
      "outputs": [
        {
          "internalType": "uint256",
          "name": "",
          "type": "uint256"
        }
      ],
      "stateMutability": "nonpayable",
      "type": "function"
    },
    {
      "inputs": [
        {
          "internalType": "uint256",
          "name": "",
          "type": "uint256"
        }
      ],
      "name": "repositories",
      "outputs": [
        {
          "internalType": "uint256",
          "name": "id",
          "type": "uint256"
        },
        {
          "internalType": "address",
          "name": "owner",
          "type": "address"
        },
        {
          "internalType": "string",
          "name": "githubUrl",
          "type": "string"
        },
        {
          "internalType": "string",
          "name": "repoHash",
          "type": "string"
        },
        {
          "internalType": "string",
          "name": "codeFingerprint",
          "type": "string"
        },
        {
          "internalType": "string",
          "name": "licenseType",
          "type": "string"
        },
        {
          "internalType": "uint256",
          "name": "registeredAt",
          "type": "uint256"
        },
        {
          "internalType": "bool",
          "name": "isActive",
          "type": "bool"
        },
        {
          "internalType": "string",
          "name": "ipfsMetadata",
          "type": "string"
        }
      ],
      "stateMutability": "view",
      "type": "function"
    },
    {
      "inputs": [
        {
          "internalType": "address",
          "name": "newOwner",
          "type": "address"
        }
      ],
      "name": "transferOwnership",
      "outputs": [],
      "stateMutability": "nonpayable",
      "type": "function"
    },
    {
      "inputs": [
        {
          "internalType": "uint256",
          "name": "repoId",
          "type": "uint256"
        },
        {
          "internalType": "string",
          "name": "newLicense",
          "type": "string"
        }
      ],
      "name": "updateLicense",
      "outputs": [],
      "stateMutability": "nonpayable",
      "type": "function"
    },
    {
      "inputs": [
        {
          "internalType": "uint256",
          "name": "violationId",
          "type": "uint256"
        },
        {
          "internalType": "enum GitHubRepoProtection.ViolationStatus",
          "name": "newStatus",
          "type": "uint8"
        },
        {
          "internalType": "string",
          "name": "dmcaReference",
          "type": "string"
        }
      ],
      "name": "updateViolationStatus",
      "outputs": [],
      "stateMutability": "nonpayable",
      "type": "function"
    },
    {
      "inputs": [
        {
          "internalType": "address",
          "name": "",
          "type": "address"
        },
        {
          "internalType": "uint256",
          "name": "",
          "type": "uint256"
        }
      ],
      "name": "userRepositories",
      "outputs": [
        {
          "internalType": "uint256",
          "name": "",
          "type": "uint256"
        }
      ],
      "stateMutability": "view",
      "type": "function"
    },
    {
      "inputs": [
        {
          "internalType": "uint256",
          "name": "",
          "type": "uint256"
        }
      ],
      "name": "violations",
      "outputs": [
        {
          "internalType": "uint256",
          "name": "id",
          "type": "uint256"
        },
        {
          "internalType": "uint256",
          "name": "originalRepoId",
          "type": "uint256"
        },
        {
          "internalType": "address",
          "name": "reporter",
          "type": "address"
        },
        {
          "internalType": "string",
          "name": "violatingUrl",
          "type": "string"
        },
        {
          "internalType": "string",
          "name": "evidenceHash",
          "type": "string"
        },
        {
          "internalType": "uint256",
          "name": "similarityScore",
          "type": "uint256"
        },
        {
          "internalType": "enum GitHubRepoProtection.ViolationStatus",
          "name": "status",
          "type": "uint8"
        },
        {
          "internalType": "uint256",
          "name": "reportedAt",
          "type": "uint256"
        },
        {
          "internalType": "string",
          "name": "dmcaReference",
          "type": "string"
        }
      ],
      "stateMutability": "view",
      "type": "function"
    }
  ],
  "bytecode": "0x60806040523480156200001157600080fd5b50338062000040576000604051631e4fbdf760e01b8152600401620000379190620000ca565b60405180910390fd5b6200004b8162000056565b5060018055620000da565b600080546001600160a01b038381166001600160a01b0319831681178455604051919092169283917f8be0079c531659141344cd1fd0a4f28419497f9722a3daafe3b4186f6b6457e09190a35050565b60006001600160a01b0382165b92915050565b620000c481620000a6565b82525050565b60208101620000b38284620000b9565b6139cc80620000ea6000396000f3fe608060405234801561001057600080fd5b50600436106101775760003560e01c8063715018a6116100d8578063b995bb951161008c578063f2b5d99f11610066578063f2b5d99f14610338578063f2fde38b1461034b578063f9d2565f1461035e57600080fd5b8063b995bb95146102d2578063e1db8e3e146102fa578063e80dc9161461030d57600080fd5b806376652709116100bd57806376652709146102715780637d2d7e30146102995780638da5cb5b146102b957600080fd5b8063715018a614610256578063742998a61461025e57600080fd5b8063577a09ab1161012f5780635d9cb8b1116101145780635d9cb8b11461022857806368eca5e91461023057806369a2a9da1461024357600080fd5b8063577a09ab1461020d5780635be089331461021557600080fd5b80630c19afd3116101605780630c19afd3146101ba57806324b6736f146101cd5780634c5765d1146101ed57600080fd5b8063056664951461017c57806306f5d793146101a5575b600080fd5b61018f61018a3660046127b2565b610371565b60405161019c91906129dd565b60405180910390f35b6101b86101b3366004612a1e565b610831565b005b6101b86101c8366004612b61565b610d38565b6101e06101db366004612cfa565b610f20565b60405161019c9190612d37565b6102006101fb366004612d45565b610f51565b60405161019c9190612e6c565b6101e06111a5565b61018f610223366004612d45565b6111b5565b6101e061159f565b6101e061023e366004612e7d565b6115aa565b6101e0610251366004612fa8565b61163d565b6101b861172a565b6101b861026c366004613042565b61173e565b61028461027f366004612d45565b6117e9565b60405161019c99989796959493929190613090565b6102ac6102a736600461314c565b611aea565b60405161019c91906131ca565b6000546001600160a01b031660405161019c91906131db565b6102e56102e0366004612d45565b611b56565b60405161019c999897969594939291906131e9565b6101e0610308366004613261565b611cc7565b6101e061031b3660046127b2565b805160208183018101805160078252928201919093012091525481565b6101b8610346366004612d45565b611ce3565b6101b861035936600461314c565b611d3a565b6102ac61036c366004612d45565b611d91565b6103d26040518061014001604052806000815260200160006001600160a01b03168152602001606081526020016060815260200160608152602001606081526020016060815260200160008152602001600015158152602001606081525090565b60006007836040516103e491906132a5565b90815260200160405180910390205490508060000361041e5760405162461bcd60e51b8152600401610415906132e8565b60405180910390fd5b6000818152600460209081526040918290208251610140810184528154815260018201546001600160a01b03169281019290925260028101805492939192918401916104699061330e565b80601f01602080910402602001604051908101604052809291908181526020018280546104959061330e565b80156104e25780601f106104b7576101008083540402835291602001916104e2565b820191906000526020600020905b8154815290600101906020018083116104c557829003601f168201915b505050505081526020016003820180546104fb9061330e565b80601f01602080910402602001604051908101604052809291908181526020018280546105279061330e565b80156105745780601f1061054957610100808354040283529160200191610574565b820191906000526020600020905b81548152906001019060200180831161055757829003601f168201915b5050505050815260200160048201805461058d9061330e565b80601f01602080910402602001604051908101604052809291908181526020018280546105b99061330e565b80156106065780601f106105db57610100808354040283529160200191610606565b820191906000526020600020905b8154815290600101906020018083116105e957829003601f168201915b5050505050815260200160058201805480602002602001604051908101604052809291908181526020016000905b828210156106e05783829060005260206000200180546106539061330e565b80601f016020809104026020016040519081016040528092919081815260200182805461067f9061330e565b80156106cc5780601f106106a1576101008083540402835291602001916106cc565b820191906000526020600020905b8154815290600101906020018083116106af57829003601f168201915b505050505081526020019060010190610634565b5050505081526020016006820180546106f89061330e565b80601f01602080910402602001604051908101604052809291908181526020018280546107249061330e565b80156107715780601f1061074657610100808354040283529160200191610771565b820191906000526020600020905b81548152906001019060200180831161075457829003601f168201915b505050918352505060078201546020820152600882015460ff16151560408201526009820180546060909201916107a79061330e565b80601f01602080910402602001604051908101604052809291908181526020018280546107d39061330e565b80156108205780601f106107f557610100808354040283529160200191610820565b820191906000526020600020905b81548152906001019060200180831161080357829003601f168201915b505050505081525050915050919050565b600083815260056020526040812080549091036108605760405162461bcd60e51b81526004016104159061336e565b600180820154600090815260046020908152604080832081516101408101835281548152948101546001600160a01b031692850192909252600282018054939493918401916108ae9061330e565b80601f01602080910402602001604051908101604052809291908181526020018280546108da9061330e565b80156109275780601f106108fc57610100808354040283529160200191610927565b820191906000526020600020905b81548152906001019060200180831161090a57829003601f168201915b505050505081526020016003820180546109409061330e565b80601f016020809104026020016040519081016040528092919081815260200182805461096c9061330e565b80156109b95780601f1061098e576101008083540402835291602001916109b9565b820191906000526020600020905b81548152906001019060200180831161099c57829003601f168201915b505050505081526020016004820180546109d29061330e565b80601f01602080910402602001604051908101604052809291908181526020018280546109fe9061330e565b8015610a4b5780601f10610a2057610100808354040283529160200191610a4b565b820191906000526020600020905b815481529060010190602001808311610a2e57829003601f168201915b5050505050815260200160058201805480602002602001604051908101604052809291908181526020016000905b82821015610b25578382906000526020600020018054610a989061330e565b80601f0160208091040260200160405190810160405280929190818152602001828054610ac49061330e565b8015610b115780601f10610ae657610100808354040283529160200191610b11565b820191906000526020600020905b815481529060010190602001808311610af457829003601f168201915b505050505081526020019060010190610a79565b505050508152602001600682018054610b3d9061330e565b80601f0160208091040260200160405190810160405280929190818152602001828054610b699061330e565b8015610bb65780601f10610b8b57610100808354040283529160200191610bb6565b820191906000526020600020905b815481529060010190602001808311610b9957829003601f168201915b505050918352505060078201546020820152600882015460ff1615156040820152600982018054606090920191610bec9061330e565b80601f0160208091040260200160405190810160405280929190818152602001828054610c189061330e565b8015610c655780601f10610c3a57610100808354040283529160200191610c65565b820191906000526020600020905b815481529060010190602001808311610c4857829003601f168201915b505050505081525050905080602001516001600160a01b0316336001600160a01b03161480610c9e57506000546001600160a01b031633145b610cba5760405162461bcd60e51b8152600401610415906133b2565b60068201805485919060ff19166001836004811115610cdb57610cdb612d66565b0217905550825115610cf75760088201610cf58482613466565b505b847f3060f9311adae7f2ea4e77458f87f3e560706eff19ac0e29e8853d0d73f9b5ab8585604051610d2992919061352a565b60405180910390a25050505050565b610d40611df1565b60008a6002811115610d5457610d54612d66565b03610de3576000610d69898989898989611e34565b90508a6002811115610d7d57610d7d612d66565b336001600160a01b03167f603c710d9af4b322b8e851847ac2377a95a16f720336cc98be06835fd25c6cc6838c604051602001610dba919061354a565b60408051601f1981840301815290829052610dd5929161357c565b60405180910390a350610f0b565b60018a6002811115610df757610df7612d66565b03610e5a576000610e0a8a8a85856120a4565b90508a6002811115610e1e57610e1e612d66565b337f603c710d9af4b322b8e851847ac2377a95a16f720336cc98be06835fd25c6cc683610e4a8e612320565b604051602001610dba919061358a565b60028a6002811115610e6e57610e6e612d66565b03610ef357610e7d898561245d565b896002811115610e8f57610e8f612d66565b337f603c710d9af4b322b8e851847ac2377a95a16f720336cc98be06835fd25c6cc68b610ebb81612320565b604051602001610ecb91906135bc565b60408051601f1981840301815290829052610ee6929161357c565b60405180910390a3610f0b565b60405162461bcd60e51b815260040161041590613622565b610f1460018055565b50505050505050505050565b60086020528160005260406000208181548110610f3c57600080fd5b90600052602060002001600091509150505481565b610f59612594565b6000828152600560209081526040918290208251610120810184528154815260018201549281019290925260028101546001600160a01b031692820192909252600382018054919291606084019190610fb19061330e565b80601f0160208091040260200160405190810160405280929190818152602001828054610fdd9061330e565b801561102a5780601f10610fff5761010080835404028352916020019161102a565b820191906000526020600020905b81548152906001019060200180831161100d57829003601f168201915b505050505081526020016004820180546110439061330e565b80601f016020809104026020016040519081016040528092919081815260200182805461106f9061330e565b80156110bc5780601f10611091576101008083540402835291602001916110bc565b820191906000526020600020905b81548152906001019060200180831161109f57829003601f168201915b505050918352505060058201546020820152600682015460409091019060ff1660048111156110ed576110ed612d66565b60048111156110fe576110fe612d66565b81526020016007820154815260200160088201805461111c9061330e565b80601f01602080910402602001604051908101604052809291908181526020018280546111489061330e565b80156111955780601f1061116a57610100808354040283529160200191611195565b820191906000526020600020905b81548152906001019060200180831161117857829003601f168201915b5050505050815250509050919050565b60006111b060025490565b905090565b6112166040518061014001604052806000815260200160006001600160a01b03168152602001606081526020016060815260200160608152602001606081526020016060815260200160008152602001600015158152602001606081525090565b6000828152600460209081526040918290208251610140810184528154815260018201546001600160a01b03169281019290925260028101805492939192918401916112619061330e565b80601f016020809104026020016040519081016040528092919081815260200182805461128d9061330e565b80156112da5780601f106112af576101008083540402835291602001916112da565b820191906000526020600020905b8154815290600101906020018083116112bd57829003601f168201915b505050505081526020016003820180546112f39061330e565b80601f016020809104026020016040519081016040528092919081815260200182805461131f9061330e565b801561136c5780601f106113415761010080835404028352916020019161136c565b820191906000526020600020905b81548152906001019060200180831161134f57829003601f168201915b505050505081526020016004820180546113859061330e565b80601f01602080910402602001604051908101604052809291908181526020018280546113b19061330e565b80156113fe5780601f106113d3576101008083540402835291602001916113fe565b820191906000526020600020905b8154815290600101906020018083116113e157829003601f168201915b5050505050815260200160058201805480602002602001604051908101604052809291908181526020016000905b828210156114d857838290600052602060002001805461144b9061330e565b80601f01602080910402602001604051908101604052809291908181526020018280546114779061330e565b80156114c45780601f10611499576101008083540402835291602001916114c4565b820191906000526020600020905b8154815290600101906020018083116114a757829003601f168201915b50505050508152602001906001019061142c565b5050505081526020016006820180546114f09061330e565b80601f016020809104026020016040519081016040528092919081815260200182805461151c9061330e565b80156115695780601f1061153e57610100808354040283529160200191611569565b820191906000526020600020905b81548152906001019060200180831161154c57829003601f168201915b505050918352505060078201546020820152600882015460ff161515604082015260098201805460609092019161111c9061330e565b60006111b060035490565b60006115b4611df1565b60006115c4888888888888611e34565b90506000336001600160a01b03167f603c710d9af4b322b8e851847ac2377a95a16f720336cc98be06835fd25c6cc6838b604051602001611605919061354a565b60408051601f1981840301815290829052611620929161357c565b60405180910390a3905061163360018055565b9695505050505050565b6000848152600460205260408120548590820361166c5760405162461bcd60e51b815260040161041590613666565b60008181526004602052604090206008015460ff1661169d5760405162461bcd60e51b8152600401610415906136aa565b6116a5611df1565b60006116b3878787876120a4565b90506001337f603c710d9af4b322b8e851847ac2377a95a16f720336cc98be06835fd25c6cc6836116e38b612320565b6040516020016116f3919061358a565b60408051601f198184030181529082905261170e929161357c565b60405180910390a3915061172160018055565b50949350505050565b6117326124f1565b61173c6000612537565b565b60008281526004602052604090206001015482906001600160a01b031633146117795760405162461bcd60e51b8152600401610415906136ee565b611783838361245d565b6002337f603c710d9af4b322b8e851847ac2377a95a16f720336cc98be06835fd25c6cc6856117b181612320565b6040516020016117c191906135bc565b60408051601f19818403018152908290526117dc929161357c565b60405180910390a3505050565b60046020526000908152604090208054600182015460028301805492936001600160a01b039092169261181b9061330e565b80601f01602080910402602001604051908101604052809291908181526020018280546118479061330e565b80156118945780601f1061186957610100808354040283529160200191611894565b820191906000526020600020905b81548152906001019060200180831161187757829003601f168201915b5050505050908060030180546118a99061330e565b80601f01602080910402602001604051908101604052809291908181526020018280546118d59061330e565b80156119225780601f106118f757610100808354040283529160200191611922565b820191906000526020600020905b81548152906001019060200180831161190557829003601f168201915b5050505050908060040180546119379061330e565b80601f01602080910402602001604051908101604052809291908181526020018280546119639061330e565b80156119b05780601f10611985576101008083540402835291602001916119b0565b820191906000526020600020905b81548152906001019060200180831161199357829003601f168201915b5050505050908060060180546119c59061330e565b80601f01602080910402602001604051908101604052809291908181526020018280546119f19061330e565b8015611a3e5780601f10611a1357610100808354040283529160200191611a3e565b820191906000526020600020905b815481529060010190602001808311611a2157829003601f168201915b50505050600783015460088401546009850180549495929460ff909216935090611a679061330e565b80601f0160208091040260200160405190810160405280929190818152602001828054611a939061330e565b8015611ae05780601f10611ab557610100808354040283529160200191611ae0565b820191906000526020600020905b815481529060010190602001808311611ac357829003601f168201915b5050505050905089565b6001600160a01b038116600090815260066020908152604091829020805483518184028101840190945280845260609392830182828015611b4a57602002820191906000526020600020905b815481526020019060010190808311611b36575b50505050509050919050565b6005602052600090815260409020805460018201546002830154600384018054939492936001600160a01b039092169291611b909061330e565b80601f0160208091040260200160405190810160405280929190818152602001828054611bbc9061330e565b8015611c095780601f10611bde57610100808354040283529160200191611c09565b820191906000526020600020905b815481529060010190602001808311611bec57829003601f168201915b505050505090806004018054611c1e9061330e565b80601f0160208091040260200160405190810160405280929190818152602001828054611c4a9061330e565b8015611c975780601f10611c6c57610100808354040283529160200191611c97565b820191906000526020600020905b815481529060010190602001808311611c7a57829003601f168201915b5050506005840154600685015460078601546008870180549697939660ff909316955090935090611a679061330e565b60066020528160005260406000208181548110610f3c57600080fd5b60008181526004602052604090206001015481906001600160a01b03163314611d1e5760405162461bcd60e51b8152600401610415906136ee565b506000908152600460205260409020600801805460ff19169055565b611d426124f1565b6001600160a01b038116611d855760006040517f1e4fbdf700000000000000000000000000000000000000000000000000000000815260040161041591906131db565b611d8e81612537565b50565b600081815260086020908152604091829020805483518184028101840190945280845260609392830182828015611b4a5760200282019190600052602060002090815481526020019060010190808311611b365750505050509050919050565b600260015403611e2d576040517f3ee5aeb500000000000000000000000000000000000000000000000000000000815260040160405180910390fd5b6002600155565b600080875111611e565760405162461bcd60e51b815260040161041590613732565b6000865111611e775760405162461bcd60e51b815260040161041590613776565b600786604051611e8791906132a5565b908152602001604051809103902054600014611eb55760405162461bcd60e51b8152600401610415906137ba565b611ec3600280546001019055565b6000611ece60025490565b60408051610140810182528281523360208083019182528284018d8152606084018d9052608084018c905260a084018b905260c084018a90524260e08501526001610100850181905261012085018a90526000878152600490935294909120835181559151938201805473ffffffffffffffffffffffffffffffffffffffff19166001600160a01b03909516949094179093559151929350916002820190611f769082613466565b5060608201516003820190611f8b9082613466565b5060808201516004820190611fa09082613466565b5060a08201518051611fbc9160058401916020909101906125fa565b5060c08201516006820190611fd19082613466565b5060e0820151600782015561010082015160088201805460ff1916911515919091179055610120820151600982019061200a9082613466565b50503360009081526006602090815260408083208054600181018255908452919092200183905551829150600790612043908a906132a5565b908152602001604051809103902081905550336001600160a01b0316817ff53884b389f843105d66e5ab2c843ebe65a3d79d40f62a4d709d4f8a6763912d8a8a6040516120919291906137ca565b60405180910390a3979650505050505050565b600084815260046020526040812054859082036120d35760405162461bcd60e51b815260040161041590613666565b60008181526004602052604090206008015460ff166121045760405162461bcd60e51b8152600401610415906136aa565b60008551116121255760405162461bcd60e51b815260040161041590613823565b60648311156121465760405162461bcd60e51b815260040161041590613867565b60468310156121675760405162461bcd60e51b8152600401610415906138ab565b612175600380546001019055565b600061218060035490565b9050604051806101200160405280828152602001888152602001336001600160a01b03168152602001878152602001868152602001858152602001600060048111156121ce576121ce612d66565b8152426020808301919091526040805180830182526000808252938201528483526005825291829020835181559083015160018201559082015160028201805473ffffffffffffffffffffffffffffffffffffffff19166001600160a01b039092169190911790556060820151600382019061224a9082613466565b506080820151600482019061225f9082613466565b5060a0820151600582015560c082015160068201805460ff1916600183600481111561228d5761228d612d66565b021790555060e0820151600782015561010082015160088201906122b19082613466565b505050600087815260086020908152604080832080546001810182559084529190922001829055513390889083907f38d0c9512a967904f5645848c4e285976e101000a5313bc9cc35ebb46d5959429061230e908b908a906138bb565b60405180910390a49695505050505050565b60608160000361236357505060408051808201909152600181527f3000000000000000000000000000000000000000000000000000000000000000602082015290565b8160005b811561238d5780612377816138f1565b91506123869050600a83613921565b9150612367565b60008167ffffffffffffffff8111156123a8576123a86126b7565b6040519080825280601f01601f1916602001820160405280156123d2576020820181803683370190505b5090505b8415612455576123e7600183613935565b91506123f4600a86613948565b6123ff90603061395c565b60f81b8183815181106124145761241461396f565b60200101907effffffffffffffffffffffffffffffffffffffffffffffffffffffffffffff1916908160001a90535061244e600a86613921565b94506123d6565b949350505050565b60008281526004602052604090206001015482906001600160a01b031633146124985760405162461bcd60e51b8152600401610415906136ee565b60008381526004602052604090206006016124b38382613466565b50827f05507f19d569e30742dfebcb34faeec4e2bcaa9f48a5e3b862d9faa76210a963836040516124e49190613985565b60405180910390a2505050565b6000546001600160a01b0316331461173c57336040517f118cdaa700000000000000000000000000000000000000000000000000000000815260040161041591906131db565b600080546001600160a01b0383811673ffffffffffffffffffffffffffffffffffffffff19831681178455604051919092169283917f8be0079c531659141344cd1fd0a4f28419497f9722a3daafe3b4186f6b6457e09190a35050565b604051806101200160405280600081526020016000815260200160006001600160a01b03168152602001606081526020016060815260200160008152602001600060048111156125e6576125e6612d66565b815260200160008152602001606081525090565b828054828255906000526020600020908101928215612640579160200282015b8281111561264057825182906126309082613466565b509160200191906001019061261a565b5061264c929150612650565b5090565b8082111561264c576000612664828261266d565b50600101612650565b5080546126799061330e565b6000825580601f10612689575050565b601f016020900490600052602060002090810190611d8e91905b8082111561264c57600081556001016126a3565b634e487b7160e01b600052604160045260246000fd5b601f19601f830116810181811067ffffffffffffffff821117156126f3576126f36126b7565b6040525050565b600061270560405190565b905061271182826126cd565b919050565b600067ffffffffffffffff821115612730576127306126b7565b601f19601f83011660200192915050565b82818337506000910152565b600061276061275b84612716565b6126fa565b90508281526020810184848401111561277b5761277b600080fd5b612786848285612741565b509392505050565b600082601f8301126127a2576127a2600080fd5b813561245584826020860161274d565b6000602082840312156127c7576127c7600080fd5b813567ffffffffffffffff8111156127e1576127e1600080fd5b6124558482850161278e565b805b82525050565b60006001600160a01b0382165b92915050565b6127ef816127f5565b60005b8381101561282c578181015183820152602001612814565b50506000910152565b600061283f825190565b808452602084019350612856818560208601612811565b601f01601f19169290920192915050565b60006128738383612835565b9392505050565b6000612884825190565b8084526020840193508360208202850161289e8560200190565b8060005b858110156128d357848403895281516128bb8582612867565b94506020830160209a909a01999250506001016128a2565b5091979650505050505050565b8015156127ef565b80516000906101408401906128fd85826127ed565b5060208301516129106020860182612808565b50604083015184820360408601526129288282612835565b915050606083015184820360608601526129428282612835565b9150506080830151848203608086015261295c8282612835565b91505060a083015184820360a0860152612976828261287a565b91505060c083015184820360c08601526129908282612835565b91505060e08301516129a560e08601826127ed565b506101008301516129ba6101008601826128e0565b506101208301518482036101208601526129d48282612835565b95945050505050565b6020808252810161287381846128e8565b805b8114611d8e57600080fd5b8035612802816129ee565b60058110611d8e57600080fd5b803561280281612a06565b600080600060608486031215612a3657612a36600080fd5b6000612a4286866129fb565b9350506020612a5386828701612a13565b925050604084013567ffffffffffffffff811115612a7357612a73600080fd5b612a7f8682870161278e565b9150509250925092565b60038110611d8e57600080fd5b803561280281612a89565b600067ffffffffffffffff821115612abb57612abb6126b7565b5060209081020190565b6000612ad361275b84612aa1565b83815290506020808201908402830185811115612af257612af2600080fd5b835b81811015612b3357803567ffffffffffffffff811115612b1657612b16600080fd5b808601612b23898261278e565b8552505060209283019201612af4565b5050509392505050565b600082601f830112612b5157612b51600080fd5b8135612455848260208601612ac5565b6000806000806000806000806000806101408b8d031215612b8457612b84600080fd5b6000612b908d8d612a96565b9a50506020612ba18d828e016129fb565b99505060408b013567ffffffffffffffff811115612bc157612bc1600080fd5b612bcd8d828e0161278e565b98505060608b013567ffffffffffffffff811115612bed57612bed600080fd5b612bf98d828e0161278e565b97505060808b013567ffffffffffffffff811115612c1957612c19600080fd5b612c258d828e0161278e565b96505060a08b013567ffffffffffffffff811115612c4557612c45600080fd5b612c518d828e01612b3d565b95505060c08b013567ffffffffffffffff811115612c7157612c71600080fd5b612c7d8d828e0161278e565b94505060e08b013567ffffffffffffffff811115612c9d57612c9d600080fd5b612ca98d828e0161278e565b9350506101008b013567ffffffffffffffff811115612cca57612cca600080fd5b612cd68d828e0161278e565b925050610120612ce88d828e016129fb565b9150509295989b9194979a5092959850565b60008060408385031215612d1057612d10600080fd5b6000612d1c85856129fb565b9250506020612d2d858286016129fb565b9150509250929050565b6020810161280282846127ed565b600060208284031215612d5a57612d5a600080fd5b600061245584846129fb565b634e487b7160e01b600052602160045260246000fd5b60058110611d8e57611d8e612d66565b8061271181612d7c565b600061280282612d8c565b6127ef81612d96565b8051600090610120840190612dbf85826127ed565b506020830151612dd260208601826127ed565b506040830151612de56040860182612808565b5060608301518482036060860152612dfd8282612835565b91505060808301518482036080860152612e178282612835565b91505060a0830151612e2c60a08601826127ed565b5060c0830151612e3f60c0860182612da1565b5060e0830151612e5260e08601826127ed565b506101008301518482036101008601526129d48282612835565b602080825281016128738184612daa565b60008060008060008060c08789031215612e9957612e99600080fd5b863567ffffffffffffffff811115612eb357612eb3600080fd5b612ebf89828a0161278e565b965050602087013567ffffffffffffffff811115612edf57612edf600080fd5b612eeb89828a0161278e565b955050604087013567ffffffffffffffff811115612f0b57612f0b600080fd5b612f1789828a0161278e565b945050606087013567ffffffffffffffff811115612f3757612f37600080fd5b612f4389828a01612b3d565b935050608087013567ffffffffffffffff811115612f6357612f63600080fd5b612f6f89828a0161278e565b92505060a087013567ffffffffffffffff811115612f8f57612f8f600080fd5b612f9b89828a0161278e565b9150509295509295509295565b60008060008060808587031215612fc157612fc1600080fd5b6000612fcd87876129fb565b945050602085013567ffffffffffffffff811115612fed57612fed600080fd5b612ff98782880161278e565b935050604085013567ffffffffffffffff81111561301957613019600080fd5b6130258782880161278e565b9250506060613036878288016129fb565b91505092959194509250565b6000806040838503121561305857613058600080fd5b600061306485856129fb565b925050602083013567ffffffffffffffff81111561308457613084600080fd5b612d2d8582860161278e565b610120810161309f828c6127ed565b6130ac602083018b612808565b81810360408301526130be818a612835565b905081810360608301526130d28189612835565b905081810360808301526130e68188612835565b905081810360a08301526130fa8187612835565b905061310960c08301866127ed565b61311660e08301856128e0565b8181036101008301526131298184612835565b9b9a5050505050505050505050565b6129f0816127f5565b803561280281613138565b60006020828403121561316157613161600080fd5b60006124558484613141565b600061317983836127ed565b505060200190565b600061318b825190565b80845260209384019383018060005b838110156131bf5781516131ae888261316d565b97506020830192505060010161319a565b509495945050505050565b602080825281016128738184613181565b602081016128028284612808565b61012081016131f8828c6127ed565b613205602083018b6127ed565b613212604083018a612808565b81810360608301526132248189612835565b905081810360808301526132388188612835565b905061324760a08301876127ed565b61325460c0830186612da1565b61311660e08301856127ed565b6000806040838503121561327757613277600080fd5b6000612d1c8585613141565b600061328d825190565b61329b818560208601612811565b9290920192915050565b60006128738284613283565b601481526000602082017f5265706f7369746f7279206e6f7420666f756e64000000000000000000000000815291505b5060200190565b60208082528101612802816132b1565b634e487b7160e01b600052602260045260246000fd5b60028104600182168061332257607f821691505b602082108103613334576133346132f8565b50919050565b601881526000602082017f56696f6c6174696f6e20646f6573206e6f742065786973740000000000000000815291506132e1565b602080825281016128028161333a565b600e81526000602082017f4e6f7420617574686f72697a6564000000000000000000000000000000000000815291506132e1565b602080825281016128028161337e565b60006128026133ce8381565b90565b6133da836133c2565b815460001960089490940293841b1916921b91909117905550565b60006134028184846133d1565b505050565b818110156134225761341a6000826133f5565b600101613407565b5050565b601f821115613402576000818152602090206020601f8501048101602085101561344d5750805b61345f6020601f860104830182613407565b5050505050565b815167ffffffffffffffff811115613480576134806126b7565b61348a825461330e565b613495828285613426565b6020601f8311600181146134c957600084156134b15750858201515b600019600886021c1981166002860217865550613522565b600085815260208120601f198616915b828110156134f957888501518255602094850194600190920191016134d9565b868310156135155784890151600019601f89166008021c191682555b6001600288020188555050505b505050505050565b604081016135388285612da1565b81810360208301526124558184612835565b7f52656769737465726564206e6577207265706f3a200000000000000000000000815260150160006128738284613283565b6040810161353882856127ed565b7f5265706f727465642076696f6c6174696f6e20666f72207265706f49642000008152601e0160006128738284613283565b7f55706461746564206c6963656e736520666f72207265706f49642000000000008152601b0160006128738284613283565b601781526000602082017f496e76616c6964207375626d697373696f6e2074797065000000000000000000815291506132e1565b60208082528101612802816135ee565b601981526000602082017f5265706f7369746f727920646f6573206e6f7420657869737400000000000000815291506132e1565b6020808252810161280281613632565b601881526000602082017f5265706f7369746f7279206973206e6f74206163746976650000000000000000815291506132e1565b6020808252810161280281613676565b601481526000602082017f4e6f74207265706f7369746f7279206f776e6572000000000000000000000000815291506132e1565b60208082528101612802816136ba565b601381526000602082017f4769744875622055524c20726571756972656400000000000000000000000000815291506132e1565b60208082528101612802816136fe565b601881526000602082017f5265706f7369746f727920686173682072657175697265640000000000000000815291506132e1565b6020808252810161280281613742565b601d81526000602082017f5265706f7369746f727920616c72656164792072656769737465726564000000815291506132e1565b6020808252810161280281613786565b604080825281016137db8185612835565b905081810360208301526124558184612835565b601681526000602082017f56696f6c6174696e672055524c20726571756972656400000000000000000000815291506132e1565b60208082528101612802816137ef565b601881526000602082017f496e76616c69642073696d696c61726974792073636f72650000000000000000815291506132e1565b6020808252810161280281613833565b601881526000602082017f53696d696c61726974792073636f726520746f6f206c6f770000000000000000815291506132e1565b6020808252810161280281613877565b604080825281016138cc8185612835565b905061287360208301846127ed565b634e487b7160e01b600052601160045260246000fd5b60006000198203613904576139046138db565b5060010190565b634e487b7160e01b600052601260045260246000fd5b6000826139305761393061390b565b500490565b81810381811115612802576128026138db565b6000826139575761395761390b565b500690565b80820180821115612802576128026138db565b634e487b7160e01b600052603260045260246000fd5b60208082528101612873818461283556fea26469706673582212203cce917d3e125a7db1d310ad633aa009ebb27bf9d1dc9fbad2e569d65b59585564736f6c63430008170033",
  "linkReferences": {},
  "deployedLinkReferences": {}
}